{
  "contractName": "StudentCredentials",
  "abi": [
    {
      "inputs": [],
      "stateMutability": "nonpayable",
      "type": "constructor"
    },
    {
      "anonymous": false,
      "inputs": [
        {
          "indexed": true,
          "internalType": "address",
          "name": "student",
          "type": "address"
        },
        {
          "indexed": true,
          "internalType": "uint256",
          "name": "tokenId",
          "type": "uint256"
        },
        {
          "indexed": false,
          "internalType": "string",
          "name": "record",
          "type": "string"
        }
      ],
      "name": "AcademicRecordMinted",
      "type": "event"
    },
    {
      "anonymous": false,
      "inputs": [
        {
          "indexed": true,
          "internalType": "address",
          "name": "owner",
          "type": "address"
        },
        {
          "indexed": true,
          "internalType": "address",
          "name": "approved",
          "type": "address"
        },
        {
          "indexed": true,
          "internalType": "uint256",
          "name": "tokenId",
          "type": "uint256"
        }
      ],
      "name": "Approval",
      "type": "event"
    },
    {
      "anonymous": false,
      "inputs": [
        {
          "indexed": true,
          "internalType": "address",
          "name": "owner",
          "type": "address"
        },
        {
          "indexed": true,
          "internalType": "address",
          "name": "operator",
          "type": "address"
        },
        {
          "indexed": false,
          "internalType": "bool",
          "name": "approved",
          "type": "bool"
        }
      ],
      "name": "ApprovalForAll",
      "type": "event"
    },
    {
      "anonymous": false,
      "inputs": [
        {
          "indexed": true,
          "internalType": "address",
          "name": "previousOwner",
          "type": "address"
        },
        {
          "indexed": true,
          "internalType": "address",
          "name": "newOwner",
          "type": "address"
        }
      ],
      "name": "OwnershipTransferred",
      "type": "event"
    },
    {
      "anonymous": false,
      "inputs": [
        {
          "indexed": true,
          "internalType": "address",
          "name": "student",
          "type": "address"
        },
        {
          "indexed": false,
          "internalType": "string",
          "name": "resumeHash",
          "type": "string"
        }
      ],
      "name": "ResumeUploaded",
      "type": "event"
    },
    {
      "anonymous": false,
      "inputs": [
        {
          "indexed": true,
          "internalType": "address",
          "name": "employer",
          "type": "address"
        },
        {
          "indexed": true,
          "internalType": "address",
          "name": "student",
          "type": "address"
        }
      ],
      "name": "ResumeVerified",
      "type": "event"
    },
    {
      "anonymous": false,
      "inputs": [
        {
          "indexed": true,
          "internalType": "address",
          "name": "from",
          "type": "address"
        },
        {
          "indexed": true,
          "internalType": "address",
          "name": "to",
          "type": "address"
        },
        {
          "indexed": true,
          "internalType": "uint256",
          "name": "tokenId",
          "type": "uint256"
        }
      ],
      "name": "Transfer",
      "type": "event"
    },
    {
      "inputs": [
        {
          "internalType": "uint256",
          "name": "",
          "type": "uint256"
        }
      ],
      "name": "academicRecords",
      "outputs": [
        {
          "internalType": "string",
          "name": "",
          "type": "string"
        }
      ],
      "stateMutability": "view",
      "type": "function",
      "constant": true
    },
    {
      "inputs": [
        {
          "internalType": "address",
          "name": "to",
          "type": "address"
        },
        {
          "internalType": "uint256",
          "name": "tokenId",
          "type": "uint256"
        }
      ],
      "name": "approve",
      "outputs": [],
      "stateMutability": "nonpayable",
      "type": "function"
    },
    {
      "inputs": [
        {
          "internalType": "address",
          "name": "owner",
          "type": "address"
        }
      ],
      "name": "balanceOf",
      "outputs": [
        {
          "internalType": "uint256",
          "name": "",
          "type": "uint256"
        }
      ],
      "stateMutability": "view",
      "type": "function",
      "constant": true
    },
    {
      "inputs": [
        {
          "internalType": "uint256",
          "name": "tokenId",
          "type": "uint256"
        }
      ],
      "name": "getApproved",
      "outputs": [
        {
          "internalType": "address",
          "name": "",
          "type": "address"
        }
      ],
      "stateMutability": "view",
      "type": "function",
      "constant": true
    },
    {
      "inputs": [
        {
          "internalType": "address",
          "name": "owner",
          "type": "address"
        },
        {
          "internalType": "address",
          "name": "operator",
          "type": "address"
        }
      ],
      "name": "isApprovedForAll",
      "outputs": [
        {
          "internalType": "bool",
          "name": "",
          "type": "bool"
        }
      ],
      "stateMutability": "view",
      "type": "function",
      "constant": true
    },
    {
      "inputs": [],
      "name": "name",
      "outputs": [
        {
          "internalType": "string",
          "name": "",
          "type": "string"
        }
      ],
      "stateMutability": "view",
      "type": "function",
      "constant": true
    },
    {
      "inputs": [],
      "name": "nextTokenId",
      "outputs": [
        {
          "internalType": "uint256",
          "name": "",
          "type": "uint256"
        }
      ],
      "stateMutability": "view",
      "type": "function",
      "constant": true
    },
    {
      "inputs": [],
      "name": "owner",
      "outputs": [
        {
          "internalType": "address",
          "name": "",
          "type": "address"
        }
      ],
      "stateMutability": "view",
      "type": "function",
      "constant": true
    },
    {
      "inputs": [
        {
          "internalType": "uint256",
          "name": "tokenId",
          "type": "uint256"
        }
      ],
      "name": "ownerOf",
      "outputs": [
        {
          "internalType": "address",
          "name": "",
          "type": "address"
        }
      ],
      "stateMutability": "view",
      "type": "function",
      "constant": true
    },
    {
      "inputs": [],
      "name": "renounceOwnership",
      "outputs": [],
      "stateMutability": "nonpayable",
      "type": "function"
    },
    {
      "inputs": [
        {
          "internalType": "address",
          "name": "",
          "type": "address"
        }
      ],
      "name": "resumeHashes",
      "outputs": [
        {
          "internalType": "string",
          "name": "",
          "type": "string"
        }
      ],
      "stateMutability": "view",
      "type": "function",
      "constant": true
    },
    {
      "inputs": [
        {
          "internalType": "address",
          "name": "from",
          "type": "address"
        },
        {
          "internalType": "address",
          "name": "to",
          "type": "address"
        },
        {
          "internalType": "uint256",
          "name": "tokenId",
          "type": "uint256"
        }
      ],
      "name": "safeTransferFrom",
      "outputs": [],
      "stateMutability": "nonpayable",
      "type": "function"
    },
    {
      "inputs": [
        {
          "internalType": "address",
          "name": "from",
          "type": "address"
        },
        {
          "internalType": "address",
          "name": "to",
          "type": "address"
        },
        {
          "internalType": "uint256",
          "name": "tokenId",
          "type": "uint256"
        },
        {
          "internalType": "bytes",
          "name": "data",
          "type": "bytes"
        }
      ],
      "name": "safeTransferFrom",
      "outputs": [],
      "stateMutability": "nonpayable",
      "type": "function"
    },
    {
      "inputs": [
        {
          "internalType": "address",
          "name": "operator",
          "type": "address"
        },
        {
          "internalType": "bool",
          "name": "approved",
          "type": "bool"
        }
      ],
      "name": "setApprovalForAll",
      "outputs": [],
      "stateMutability": "nonpayable",
      "type": "function"
    },
    {
      "inputs": [
        {
          "internalType": "bytes4",
          "name": "interfaceId",
          "type": "bytes4"
        }
      ],
      "name": "supportsInterface",
      "outputs": [
        {
          "internalType": "bool",
          "name": "",
          "type": "bool"
        }
      ],
      "stateMutability": "view",
      "type": "function",
      "constant": true
    },
    {
      "inputs": [],
      "name": "symbol",
      "outputs": [
        {
          "internalType": "string",
          "name": "",
          "type": "string"
        }
      ],
      "stateMutability": "view",
      "type": "function",
      "constant": true
    },
    {
      "inputs": [
        {
          "internalType": "uint256",
          "name": "tokenId",
          "type": "uint256"
        }
      ],
      "name": "tokenURI",
      "outputs": [
        {
          "internalType": "string",
          "name": "",
          "type": "string"
        }
      ],
      "stateMutability": "view",
      "type": "function",
      "constant": true
    },
    {
      "inputs": [
        {
          "internalType": "address",
          "name": "from",
          "type": "address"
        },
        {
          "internalType": "address",
          "name": "to",
          "type": "address"
        },
        {
          "internalType": "uint256",
          "name": "tokenId",
          "type": "uint256"
        }
      ],
      "name": "transferFrom",
      "outputs": [],
      "stateMutability": "nonpayable",
      "type": "function"
    },
    {
      "inputs": [
        {
          "internalType": "address",
          "name": "newOwner",
          "type": "address"
        }
      ],
      "name": "transferOwnership",
      "outputs": [],
      "stateMutability": "nonpayable",
      "type": "function"
    },
    {
      "inputs": [
        {
          "internalType": "address",
          "name": "",
          "type": "address"
        }
      ],
      "name": "verifiedResumes",
      "outputs": [
        {
          "internalType": "bool",
          "name": "",
          "type": "bool"
        }
      ],
      "stateMutability": "view",
      "type": "function",
      "constant": true
    },
    {
      "inputs": [
        {
          "internalType": "string",
          "name": "resumeHash",
          "type": "string"
        }
      ],
      "name": "uploadResume",
      "outputs": [],
      "stateMutability": "nonpayable",
      "type": "function"
    },
    {
      "inputs": [
        {
          "internalType": "address",
          "name": "student",
          "type": "address"
        },
        {
          "internalType": "string",
          "name": "providedHash",
          "type": "string"
        }
      ],
      "name": "verifyResume",
      "outputs": [],
      "stateMutability": "nonpayable",
      "type": "function"
    },
    {
      "inputs": [
        {
          "internalType": "string",
          "name": "record",
          "type": "string"
        }
      ],
      "name": "mintAcademicRecord",
      "outputs": [],
      "stateMutability": "nonpayable",
      "type": "function"
    },
    {
      "inputs": [
        {
          "internalType": "uint256",
          "name": "tokenId",
          "type": "uint256"
        }
      ],
      "name": "getAcademicRecord",
      "outputs": [
        {
          "internalType": "string",
          "name": "",
          "type": "string"
        }
      ],
      "stateMutability": "view",
      "type": "function",
      "constant": true
    }
  ],
  "bytecode": "0x60806040523480156200001157600080fd5b506040518060400160405280601281526020017f53747564656e7443726564656e7469616c7300000000000000000000000000008152506040518060400160405280600281526020017f5343000000000000000000000000000000000000000000000000000000000000815250816000908051906020019062000096929190620001ae565b508060019080519060200190620000af929190620001ae565b505050620000d2620000c6620000e060201b60201c565b620000e860201b60201c565b6001600a81905550620002c2565b600033905090565b6000600660009054906101000a900473ffffffffffffffffffffffffffffffffffffffff16905081600660006101000a81548173ffffffffffffffffffffffffffffffffffffffff021916908373ffffffffffffffffffffffffffffffffffffffff1602179055508173ffffffffffffffffffffffffffffffffffffffff168173ffffffffffffffffffffffffffffffffffffffff167f8be0079c531659141344cd1fd0a4f28419497f9722a3daafe3b4186f6b6457e060405160405180910390a35050565b828054620001bc906200028d565b90600052602060002090601f016020900481019282620001e057600085556200022c565b82601f10620001fb57805160ff19168380011785556200022c565b828001600101855582156200022c579182015b828111156200022b5782518255916020019190600101906200020e565b5b5090506200023b91906200023f565b5090565b5b808211156200025a57600081600090555060010162000240565b5090565b7f4e487b7100000000000000000000000000000000000000000000000000000000600052602260045260246000fd5b60006002820490506001821680620002a657607f821691505b602082108103620002bc57620002bb6200025e565b5b50919050565b61318480620002d26000396000f3fe608060405234801561001057600080fd5b50600436106101585760003560e01c80636352211e116100c3578063a22cb4651161007c578063a22cb465146103eb578063b88d4fde14610407578063bd27528014610423578063c87b56dd1461043f578063e985e9c51461046f578063f2fde38b1461049f57610158565b80636352211e1461032757806370a0823114610357578063715018a61461038757806375794a3c146103915780638da5cb5b146103af57806395d89b41146103cd57610158565b806323b872dd1161011557806323b872dd146102435780632e3239611461025f57806331a04b931461027b57806342842e0e146102ab5780635feff26c146102c757806361322e69146102f757610158565b806301ffc9a71461015d57806306fdde031461018d578063081812fc146101ab578063095ea7b3146101db57806321ffdc95146101f7578063227a99c914610213575b600080fd5b6101776004803603810190610172919061208e565b6104bb565b60405161018491906120d6565b60405180910390f35b61019561059d565b6040516101a2919061218a565b60405180910390f35b6101c560048036038101906101c091906121e2565b61062f565b6040516101d29190612250565b60405180910390f35b6101f560048036038101906101f09190612297565b610675565b005b610211600480360381019061020c919061240c565b61078c565b005b61022d600480360381019061022891906121e2565b61090e565b60405161023a919061218a565b60405180910390f35b61025d60048036038101906102589190612468565b6109b3565b005b610279600480360381019061027491906124bb565b610a13565b005b61029560048036038101906102909190612504565b610ab8565b6040516102a2919061218a565b60405180910390f35b6102c560048036038101906102c09190612468565b610b58565b005b6102e160048036038101906102dc91906121e2565b610b78565b6040516102ee919061218a565b60405180910390f35b610311600480360381019061030c9190612504565b610c18565b60405161031e91906120d6565b60405180910390f35b610341600480360381019061033c91906121e2565b610c38565b60405161034e9190612250565b60405180910390f35b610371600480360381019061036c9190612504565b610cbe565b60405161037e9190612540565b60405180910390f35b61038f610d75565b005b610399610d89565b6040516103a69190612540565b60405180910390f35b6103b7610d8f565b6040516103c49190612250565b60405180910390f35b6103d5610db9565b6040516103e2919061218a565b60405180910390f35b61040560048036038101906104009190612587565b610e4b565b005b610421600480360381019061041c9190612668565b610e61565b005b61043d600480360381019061043891906124bb565b610ec3565b005b610459600480360381019061045491906121e2565b610f67565b604051610466919061218a565b60405180910390f35b610489600480360381019061048491906126eb565b610fcf565b60405161049691906120d6565b60405180910390f35b6104b960048036038101906104b49190612504565b611063565b005b60007f80ac58cd000000000000000000000000000000000000000000000000000000007bffffffffffffffffffffffffffffffffffffffffffffffffffffffff1916827bffffffffffffffffffffffffffffffffffffffffffffffffffffffff1916148061058657507f5b5e139f000000000000000000000000000000000000000000000000000000007bffffffffffffffffffffffffffffffffffffffffffffffffffffffff1916827bffffffffffffffffffffffffffffffffffffffffffffffffffffffff1916145b806105965750610595826110e6565b5b9050919050565b6060600080546105ac9061275a565b80601f01602080910402602001604051908101604052809291908181526020018280546105d89061275a565b80156106255780601f106105fa57610100808354040283529160200191610625565b820191906000526020600020905b81548152906001019060200180831161060857829003601f168201915b5050505050905090565b600061063a82611150565b6004600083815260200190815260200160002060009054906101000a900473ffffffffffffffffffffffffffffffffffffffff169050919050565b600061068082610c38565b90508073ffffffffffffffffffffffffffffffffffffffff168373ffffffffffffffffffffffffffffffffffffffff16036106f0576040517f08c379a00000000000000000000000000000000000000000000000000000000081526004016106e7906127fd565b60405180910390fd5b8073ffffffffffffffffffffffffffffffffffffffff1661070f61119b565b73ffffffffffffffffffffffffffffffffffffffff16148061073e575061073d8161073861119b565b610fcf565b5b61077d576040517f08c379a00000000000000000000000000000000000000000000000000000000081526004016107749061288f565b60405180910390fd5b61078783836111a3565b505050565b8060405160200161079d91906128eb565b60405160208183030381529060405280519060200120600760008473ffffffffffffffffffffffffffffffffffffffff1673ffffffffffffffffffffffffffffffffffffffff1681526020019081526020016000206040516020016108029190612996565b6040516020818303038152906040528051906020012014610858576040517f08c379a000000000000000000000000000000000000000000000000000000000815260040161084f906129f9565b60405180910390fd5b6001600960008473ffffffffffffffffffffffffffffffffffffffff1673ffffffffffffffffffffffffffffffffffffffff16815260200190815260200160002060006101000a81548160ff0219169083151502179055508173ffffffffffffffffffffffffffffffffffffffff163373ffffffffffffffffffffffffffffffffffffffff167f9ca51ab6c3c7e50e9b6f18e7c52f9c3691173f09e08f5a1cf7649c0f00e3633e60405160405180910390a35050565b606060086000838152602001908152602001600020805461092e9061275a565b80601f016020809104026020016040519081016040528092919081815260200182805461095a9061275a565b80156109a75780601f1061097c576101008083540402835291602001916109a7565b820191906000526020600020905b81548152906001019060200180831161098a57829003601f168201915b50505050509050919050565b6109c46109be61119b565b8261125c565b610a03576040517f08c379a00000000000000000000000000000000000000000000000000000000081526004016109fa90612a8b565b60405180910390fd5b610a0e8383836112f1565b505050565b80600760003373ffffffffffffffffffffffffffffffffffffffff1673ffffffffffffffffffffffffffffffffffffffff1681526020019081526020016000209080519060200190610a66929190611f7f565b503373ffffffffffffffffffffffffffffffffffffffff167f12bf196a4580bd7631f39631584e95f3d56906e4b5d194ca4a46b1fd793b400c82604051610aad919061218a565b60405180910390a250565b60076020528060005260406000206000915090508054610ad79061275a565b80601f0160208091040260200160405190810160405280929190818152602001828054610b039061275a565b8015610b505780601f10610b2557610100808354040283529160200191610b50565b820191906000526020600020905b815481529060010190602001808311610b3357829003601f168201915b505050505081565b610b7383838360405180602001604052806000815250610e61565b505050565b60086020528060005260406000206000915090508054610b979061275a565b80601f0160208091040260200160405190810160405280929190818152602001828054610bc39061275a565b8015610c105780601f10610be557610100808354040283529160200191610c10565b820191906000526020600020905b815481529060010190602001808311610bf357829003601f168201915b505050505081565b60096020528060005260406000206000915054906101000a900460ff1681565b600080610c44836115ea565b9050600073ffffffffffffffffffffffffffffffffffffffff168173ffffffffffffffffffffffffffffffffffffffff1603610cb5576040517f08c379a0000000000000000000000000000000000000000000000000000000008152600401610cac90612af7565b60405180910390fd5b80915050919050565b60008073ffffffffffffffffffffffffffffffffffffffff168273ffffffffffffffffffffffffffffffffffffffff1603610d2e576040517f08c379a0000000000000000000000000000000000000000000000000000000008152600401610d2590612b89565b60405180910390fd5b600360008373ffffffffffffffffffffffffffffffffffffffff1673ffffffffffffffffffffffffffffffffffffffff168152602001908152602001600020549050919050565b610d7d611627565b610d8760006116a5565b565b600a5481565b6000600660009054906101000a900473ffffffffffffffffffffffffffffffffffffffff16905090565b606060018054610dc89061275a565b80601f0160208091040260200160405190810160405280929190818152602001828054610df49061275a565b8015610e415780601f10610e1657610100808354040283529160200191610e41565b820191906000526020600020905b815481529060010190602001808311610e2457829003601f168201915b5050505050905090565b610e5d610e5661119b565b838361176b565b5050565b610e72610e6c61119b565b8361125c565b610eb1576040517f08c379a0000000000000000000000000000000000000000000000000000000008152600401610ea890612a8b565b60405180910390fd5b610ebd848484846118d7565b50505050565b6000600a54905081600860008381526020019081526020016000209080519060200190610ef1929190611f7f565b50610efc3382611933565b600a6000815480929190610f0f90612bd8565b9190505550803373ffffffffffffffffffffffffffffffffffffffff167f7bbef7f2737e6fdaa44e733cd16977a4b9dc52e2a9125948c3817964caaaf2ad84604051610f5b919061218a565b60405180910390a35050565b6060610f7282611150565b6000610f7c611b50565b90506000815111610f9c5760405180602001604052806000815250610fc7565b80610fa684611b67565b604051602001610fb7929190612c20565b6040516020818303038152906040525b915050919050565b6000600560008473ffffffffffffffffffffffffffffffffffffffff1673ffffffffffffffffffffffffffffffffffffffff16815260200190815260200160002060008373ffffffffffffffffffffffffffffffffffffffff1673ffffffffffffffffffffffffffffffffffffffff16815260200190815260200160002060009054906101000a900460ff16905092915050565b61106b611627565b600073ffffffffffffffffffffffffffffffffffffffff168173ffffffffffffffffffffffffffffffffffffffff16036110da576040517f08c379a00000000000000000000000000000000000000000000000000000000081526004016110d190612cb6565b60405180910390fd5b6110e3816116a5565b50565b60007f01ffc9a7000000000000000000000000000000000000000000000000000000007bffffffffffffffffffffffffffffffffffffffffffffffffffffffff1916827bffffffffffffffffffffffffffffffffffffffffffffffffffffffff1916149050919050565b61115981611c35565b611198576040517f08c379a000000000000000000000000000000000000000000000000000000000815260040161118f90612af7565b60405180910390fd5b50565b600033905090565b816004600083815260200190815260200160002060006101000a81548173ffffffffffffffffffffffffffffffffffffffff021916908373ffffffffffffffffffffffffffffffffffffffff160217905550808273ffffffffffffffffffffffffffffffffffffffff1661121683610c38565b73ffffffffffffffffffffffffffffffffffffffff167f8c5be1e5ebec7d5bd14f71427d1e84f3dd0314c0f7b2291e5b200ac8c7c3b92560405160405180910390a45050565b60008061126883610c38565b90508073ffffffffffffffffffffffffffffffffffffffff168473ffffffffffffffffffffffffffffffffffffffff1614806112aa57506112a98185610fcf565b5b806112e857508373ffffffffffffffffffffffffffffffffffffffff166112d08461062f565b73ffffffffffffffffffffffffffffffffffffffff16145b91505092915050565b8273ffffffffffffffffffffffffffffffffffffffff1661131182610c38565b73ffffffffffffffffffffffffffffffffffffffff1614611367576040517f08c379a000000000000000000000000000000000000000000000000000000000815260040161135e90612d48565b60405180910390fd5b600073ffffffffffffffffffffffffffffffffffffffff168273ffffffffffffffffffffffffffffffffffffffff16036113d6576040517f08c379a00000000000000000000000000000000000000000000000000000000081526004016113cd90612dda565b60405180910390fd5b6113e38383836001611c76565b8273ffffffffffffffffffffffffffffffffffffffff1661140382610c38565b73ffffffffffffffffffffffffffffffffffffffff1614611459576040517f08c379a000000000000000000000000000000000000000000000000000000000815260040161145090612d48565b60405180910390fd5b6004600082815260200190815260200160002060006101000a81549073ffffffffffffffffffffffffffffffffffffffff02191690556001600360008573ffffffffffffffffffffffffffffffffffffffff1673ffffffffffffffffffffffffffffffffffffffff168152602001908152602001600020600082825403925050819055506001600360008473ffffffffffffffffffffffffffffffffffffffff1673ffffffffffffffffffffffffffffffffffffffff16815260200190815260200160002060008282540192505081905550816002600083815260200190815260200160002060006101000a81548173ffffffffffffffffffffffffffffffffffffffff021916908373ffffffffffffffffffffffffffffffffffffffff160217905550808273ffffffffffffffffffffffffffffffffffffffff168473ffffffffffffffffffffffffffffffffffffffff167fddf252ad1be2c89b69c2b068fc378daa952ba7f163c4a11628f55a4df523b3ef60405160405180910390a46115e58383836001611c7c565b505050565b60006002600083815260200190815260200160002060009054906101000a900473ffffffffffffffffffffffffffffffffffffffff169050919050565b61162f61119b565b73ffffffffffffffffffffffffffffffffffffffff1661164d610d8f565b73ffffffffffffffffffffffffffffffffffffffff16146116a3576040517f08c379a000000000000000000000000000000000000000000000000000000000815260040161169a90612e46565b60405180910390fd5b565b6000600660009054906101000a900473ffffffffffffffffffffffffffffffffffffffff16905081600660006101000a81548173ffffffffffffffffffffffffffffffffffffffff021916908373ffffffffffffffffffffffffffffffffffffffff1602179055508173ffffffffffffffffffffffffffffffffffffffff168173ffffffffffffffffffffffffffffffffffffffff167f8be0079c531659141344cd1fd0a4f28419497f9722a3daafe3b4186f6b6457e060405160405180910390a35050565b8173ffffffffffffffffffffffffffffffffffffffff168373ffffffffffffffffffffffffffffffffffffffff16036117d9576040517f08c379a00000000000000000000000000000000000000000000000000000000081526004016117d090612eb2565b60405180910390fd5b80600560008573ffffffffffffffffffffffffffffffffffffffff1673ffffffffffffffffffffffffffffffffffffffff16815260200190815260200160002060008473ffffffffffffffffffffffffffffffffffffffff1673ffffffffffffffffffffffffffffffffffffffff16815260200190815260200160002060006101000a81548160ff0219169083151502179055508173ffffffffffffffffffffffffffffffffffffffff168373ffffffffffffffffffffffffffffffffffffffff167f17307eab39ab6107e8899845ad3d59bd9653f200f220920489ca2b5937696c31836040516118ca91906120d6565b60405180910390a3505050565b6118e28484846112f1565b6118ee84848484611c82565b61192d576040517f08c379a000000000000000000000000000000000000000000000000000000000815260040161192490612f44565b60405180910390fd5b50505050565b600073ffffffffffffffffffffffffffffffffffffffff168273ffffffffffffffffffffffffffffffffffffffff16036119a2576040517f08c379a000000000000000000000000000000000000000000000000000000000815260040161199990612fb0565b60405180910390fd5b6119ab81611c35565b156119eb576040517f08c379a00000000000000000000000000000000000000000000000000000000081526004016119e29061301c565b60405180910390fd5b6119f9600083836001611c76565b611a0281611c35565b15611a42576040517f08c379a0000000000000000000000000000000000000000000000000000000008152600401611a399061301c565b60405180910390fd5b6001600360008473ffffffffffffffffffffffffffffffffffffffff1673ffffffffffffffffffffffffffffffffffffffff16815260200190815260200160002060008282540192505081905550816002600083815260200190815260200160002060006101000a81548173ffffffffffffffffffffffffffffffffffffffff021916908373ffffffffffffffffffffffffffffffffffffffff160217905550808273ffffffffffffffffffffffffffffffffffffffff16600073ffffffffffffffffffffffffffffffffffffffff167fddf252ad1be2c89b69c2b068fc378daa952ba7f163c4a11628f55a4df523b3ef60405160405180910390a4611b4c600083836001611c7c565b5050565b606060405180602001604052806000815250905090565b606060006001611b7684611e09565b01905060008167ffffffffffffffff811115611b9557611b946122e1565b5b6040519080825280601f01601f191660200182016040528015611bc75781602001600182028036833780820191505090505b509050600082602001820190505b600115611c2a578080600190039150507f3031323334353637383961626364656600000000000000000000000000000000600a86061a8153600a8581611c1e57611c1d61303c565b5b04945060008503611bd5575b819350505050919050565b60008073ffffffffffffffffffffffffffffffffffffffff16611c57836115ea565b73ffffffffffffffffffffffffffffffffffffffff1614159050919050565b50505050565b50505050565b6000611ca38473ffffffffffffffffffffffffffffffffffffffff16611f5c565b15611dfc578373ffffffffffffffffffffffffffffffffffffffff1663150b7a02611ccc61119b565b8786866040518563ffffffff1660e01b8152600401611cee94939291906130c0565b6020604051808303816000875af1925050508015611d2a57506040513d601f19601f82011682018060405250810190611d279190613121565b60015b611dac573d8060008114611d5a576040519150601f19603f3d011682016040523d82523d6000602084013e611d5f565b606091505b506000815103611da4576040517f08c379a0000000000000000000000000000000000000000000000000000000008152600401611d9b90612f44565b60405180910390fd5b805181602001fd5b63150b7a0260e01b7bffffffffffffffffffffffffffffffffffffffffffffffffffffffff1916817bffffffffffffffffffffffffffffffffffffffffffffffffffffffff191614915050611e01565b600190505b949350505050565b600080600090507a184f03e93ff9f4daa797ed6e38ed64bf6a1f0100000000000000008310611e67577a184f03e93ff9f4daa797ed6e38ed64bf6a1f0100000000000000008381611e5d57611e5c61303c565b5b0492506040810190505b6d04ee2d6d415b85acef81000000008310611ea4576d04ee2d6d415b85acef81000000008381611e9a57611e9961303c565b5b0492506020810190505b662386f26fc100008310611ed357662386f26fc100008381611ec957611ec861303c565b5b0492506010810190505b6305f5e1008310611efc576305f5e1008381611ef257611ef161303c565b5b0492506008810190505b6127108310611f21576127108381611f1757611f1661303c565b5b0492506004810190505b60648310611f445760648381611f3a57611f3961303c565b5b0492506002810190505b600a8310611f53576001810190505b80915050919050565b6000808273ffffffffffffffffffffffffffffffffffffffff163b119050919050565b828054611f8b9061275a565b90600052602060002090601f016020900481019282611fad5760008555611ff4565b82601f10611fc657805160ff1916838001178555611ff4565b82800160010185558215611ff4579182015b82811115611ff3578251825591602001919060010190611fd8565b5b5090506120019190612005565b5090565b5b8082111561201e576000816000905550600101612006565b5090565b6000604051905090565b600080fd5b600080fd5b60007fffffffff0000000000000000000000000000000000000000000000000000000082169050919050565b61206b81612036565b811461207657600080fd5b50565b60008135905061208881612062565b92915050565b6000602082840312156120a4576120a361202c565b5b60006120b284828501612079565b91505092915050565b60008115159050919050565b6120d0816120bb565b82525050565b60006020820190506120eb60008301846120c7565b92915050565b600081519050919050565b600082825260208201905092915050565b60005b8381101561212b578082015181840152602081019050612110565b8381111561213a576000848401525b50505050565b6000601f19601f8301169050919050565b600061215c826120f1565b61216681856120fc565b935061217681856020860161210d565b61217f81612140565b840191505092915050565b600060208201905081810360008301526121a48184612151565b905092915050565b6000819050919050565b6121bf816121ac565b81146121ca57600080fd5b50565b6000813590506121dc816121b6565b92915050565b6000602082840312156121f8576121f761202c565b5b6000612206848285016121cd565b91505092915050565b600073ffffffffffffffffffffffffffffffffffffffff82169050919050565b600061223a8261220f565b9050919050565b61224a8161222f565b82525050565b60006020820190506122656000830184612241565b92915050565b6122748161222f565b811461227f57600080fd5b50565b6000813590506122918161226b565b92915050565b600080604083850312156122ae576122ad61202c565b5b60006122bc85828601612282565b92505060206122cd858286016121cd565b9150509250929050565b600080fd5b600080fd5b7f4e487b7100000000000000000000000000000000000000000000000000000000600052604160045260246000fd5b61231982612140565b810181811067ffffffffffffffff82111715612338576123376122e1565b5b80604052505050565b600061234b612022565b90506123578282612310565b919050565b600067ffffffffffffffff821115612377576123766122e1565b5b61238082612140565b9050602081019050919050565b82818337600083830152505050565b60006123af6123aa8461235c565b612341565b9050828152602081018484840111156123cb576123ca6122dc565b5b6123d684828561238d565b509392505050565b600082601f8301126123f3576123f26122d7565b5b813561240384826020860161239c565b91505092915050565b600080604083850312156124235761242261202c565b5b600061243185828601612282565b925050602083013567ffffffffffffffff81111561245257612451612031565b5b61245e858286016123de565b9150509250929050565b6000806000606084860312156124815761248061202c565b5b600061248f86828701612282565b93505060206124a086828701612282565b92505060406124b1868287016121cd565b9150509250925092565b6000602082840312156124d1576124d061202c565b5b600082013567ffffffffffffffff8111156124ef576124ee612031565b5b6124fb848285016123de565b91505092915050565b60006020828403121561251a5761251961202c565b5b600061252884828501612282565b91505092915050565b61253a816121ac565b82525050565b60006020820190506125556000830184612531565b92915050565b612564816120bb565b811461256f57600080fd5b50565b6000813590506125818161255b565b92915050565b6000806040838503121561259e5761259d61202c565b5b60006125ac85828601612282565b92505060206125bd85828601612572565b9150509250929050565b600067ffffffffffffffff8211156125e2576125e16122e1565b5b6125eb82612140565b9050602081019050919050565b600061260b612606846125c7565b612341565b905082815260208101848484011115612627576126266122dc565b5b61263284828561238d565b509392505050565b600082601f83011261264f5761264e6122d7565b5b813561265f8482602086016125f8565b91505092915050565b600080600080608085870312156126825761268161202c565b5b600061269087828801612282565b94505060206126a187828801612282565b93505060406126b2878288016121cd565b925050606085013567ffffffffffffffff8111156126d3576126d2612031565b5b6126df8782880161263a565b91505092959194509250565b600080604083850312156127025761270161202c565b5b600061271085828601612282565b925050602061272185828601612282565b9150509250929050565b7f4e487b7100000000000000000000000000000000000000000000000000000000600052602260045260246000fd5b6000600282049050600182168061277257607f821691505b6020821081036127855761278461272b565b5b50919050565b7f4552433732313a20617070726f76616c20746f2063757272656e74206f776e6560008201527f7200000000000000000000000000000000000000000000000000000000000000602082015250565b60006127e76021836120fc565b91506127f28261278b565b604082019050919050565b60006020820190508181036000830152612816816127da565b9050919050565b7f4552433732313a20617070726f76652063616c6c6572206973206e6f7420746f60008201527f6b656e206f776e6572206f7220617070726f76656420666f7220616c6c000000602082015250565b6000612879603d836120fc565b91506128848261281d565b604082019050919050565b600060208201905081810360008301526128a88161286c565b9050919050565b600081905092915050565b60006128c5826120f1565b6128cf81856128af565b93506128df81856020860161210d565b80840191505092915050565b60006128f782846128ba565b915081905092915050565b60008190508160005260206000209050919050565b600081546129248161275a565b61292e81866128af565b94506001821660008114612949576001811461295a5761298d565b60ff1983168652818601935061298d565b61296385612902565b60005b8381101561298557815481890152600182019150602081019050612966565b838801955050505b50505092915050565b60006129a28284612917565b915081905092915050565b7f526573756d652068617368206d69736d61746368210000000000000000000000600082015250565b60006129e36015836120fc565b91506129ee826129ad565b602082019050919050565b60006020820190508181036000830152612a12816129d6565b9050919050565b7f4552433732313a2063616c6c6572206973206e6f7420746f6b656e206f776e6560008201527f72206f7220617070726f76656400000000000000000000000000000000000000602082015250565b6000612a75602d836120fc565b9150612a8082612a19565b604082019050919050565b60006020820190508181036000830152612aa481612a68565b9050919050565b7f4552433732313a20696e76616c696420746f6b656e2049440000000000000000600082015250565b6000612ae16018836120fc565b9150612aec82612aab565b602082019050919050565b60006020820190508181036000830152612b1081612ad4565b9050919050565b7f4552433732313a2061646472657373207a65726f206973206e6f74206120766160008201527f6c6964206f776e65720000000000000000000000000000000000000000000000602082015250565b6000612b736029836120fc565b9150612b7e82612b17565b604082019050919050565b60006020820190508181036000830152612ba281612b66565b9050919050565b7f4e487b7100000000000000000000000000000000000000000000000000000000600052601160045260246000fd5b6000612be3826121ac565b91507fffffffffffffffffffffffffffffffffffffffffffffffffffffffffffffffff8203612c1557612c14612ba9565b5b600182019050919050565b6000612c2c82856128ba565b9150612c3882846128ba565b91508190509392505050565b7f4f776e61626c653a206e6577206f776e657220697320746865207a65726f206160008201527f6464726573730000000000000000000000000000000000000000000000000000602082015250565b6000612ca06026836120fc565b9150612cab82612c44565b604082019050919050565b60006020820190508181036000830152612ccf81612c93565b9050919050565b7f4552433732313a207472616e736665722066726f6d20696e636f72726563742060008201527f6f776e6572000000000000000000000000000000000000000000000000000000602082015250565b6000612d326025836120fc565b9150612d3d82612cd6565b604082019050919050565b60006020820190508181036000830152612d6181612d25565b9050919050565b7f4552433732313a207472616e7366657220746f20746865207a65726f2061646460008201527f7265737300000000000000000000000000000000000000000000000000000000602082015250565b6000612dc46024836120fc565b9150612dcf82612d68565b604082019050919050565b60006020820190508181036000830152612df381612db7565b9050919050565b7f4f776e61626c653a2063616c6c6572206973206e6f7420746865206f776e6572600082015250565b6000612e306020836120fc565b9150612e3b82612dfa565b602082019050919050565b60006020820190508181036000830152612e5f81612e23565b9050919050565b7f4552433732313a20617070726f766520746f2063616c6c657200000000000000600082015250565b6000612e9c6019836120fc565b9150612ea782612e66565b602082019050919050565b60006020820190508181036000830152612ecb81612e8f565b9050919050565b7f4552433732313a207472616e7366657220746f206e6f6e20455243373231526560008201527f63656976657220696d706c656d656e7465720000000000000000000000000000602082015250565b6000612f2e6032836120fc565b9150612f3982612ed2565b604082019050919050565b60006020820190508181036000830152612f5d81612f21565b9050919050565b7f4552433732313a206d696e7420746f20746865207a65726f2061646472657373600082015250565b6000612f9a6020836120fc565b9150612fa582612f64565b602082019050919050565b60006020820190508181036000830152612fc981612f8d565b9050919050565b7f4552433732313a20746f6b656e20616c7265616479206d696e74656400000000600082015250565b6000613006601c836120fc565b915061301182612fd0565b602082019050919050565b6000602082019050818103600083015261303581612ff9565b9050919050565b7f4e487b7100000000000000000000000000000000000000000000000000000000600052601260045260246000fd5b600081519050919050565b600082825260208201905092915050565b60006130928261306b565b61309c8185613076565b93506130ac81856020860161210d565b6130b581612140565b840191505092915050565b60006080820190506130d56000830187612241565b6130e26020830186612241565b6130ef6040830185612531565b81810360608301526131018184613087565b905095945050505050565b60008151905061311b81612062565b92915050565b6000602082840312156131375761313661202c565b5b60006131458482850161310c565b9150509291505056fea26469706673582212209a37cd73651cbe5549af2557d3960c12f8bd1673e5cd2d364e7a152c62e8167064736f6c634300080d0033",
  "immutableReferences": {},
  "source": "// SPDX-License-Identifier: MIT\r\npragma solidity ^0.8.13;\r\n\r\nimport \"@openzeppelin/contracts/token/ERC721/ERC721.sol\";\r\nimport \"@openzeppelin/contracts/access/Ownable.sol\";\r\n\r\ncontract StudentCredentials is ERC721, Ownable {\r\n\r\n    mapping(address => string) public resumeHashes;\r\n    mapping(uint => string) public academicRecords;\r\n    mapping(address => bool) public verifiedResumes;\r\n\r\n    uint public nextTokenId;\r\n\r\n    event ResumeUploaded(address indexed student, string resumeHash);\r\n    event ResumeVerified(address indexed employer, address indexed student);\r\n    event AcademicRecordMinted(address indexed student, uint indexed tokenId, string record);\r\n\r\n    constructor() ERC721(\"StudentCredentials\", \"SC\") {\r\n        nextTokenId = 1;\r\n    }\r\n\r\n    // Function for students to upload a resume hash\r\n    function uploadResume(string memory resumeHash) external {\r\n        resumeHashes[msg.sender] = resumeHash;\r\n        emit ResumeUploaded(msg.sender, resumeHash);\r\n    }\r\n\r\n    // Function for employers to verify a resume hash\r\n    function verifyResume(address student, string memory providedHash) external {\r\n        require(keccak256(abi.encodePacked(resumeHashes[student])) == keccak256(abi.encodePacked(providedHash)), \"Resume hash mismatch!\");\r\n        verifiedResumes[student] = true;\r\n        emit ResumeVerified(msg.sender, student);\r\n    }\r\n\r\n    // Function for students to mint academic credentials as NFTs\r\n    function mintAcademicRecord(string memory record) external {\r\n        uint tokenId = nextTokenId;\r\n        academicRecords[tokenId] = record;\r\n        _mint(msg.sender, tokenId);\r\n        nextTokenId++;\r\n        emit AcademicRecordMinted(msg.sender, tokenId, record);\r\n    }\r\n\r\n    // Function to get academic record by token ID\r\n    function getAcademicRecord(uint tokenId) external view returns (string memory) {\r\n        return academicRecords[tokenId];\r\n    }\r\n}",
  "sourcePath": "C:\\Users\\avani\\OneDrive\\Documents\\Desktop\\Avanish\\Projects\\TrustTag\\contracts\\StudentCredentials.sol",
  "compiler": {
    "name": "solc",
    "version": "0.8.13+commit.abaa5c0e.Emscripten.clang"
  },
  "schemaVersion": "3.4.16",
  "updatedAt": "2025-03-02T22:37:34.679Z",
  "networkType": "ethereum",
  "devdoc": {
    "kind": "dev",
    "methods": {
      "approve(address,uint256)": {
        "details": "See {IERC721-approve}."
      },
      "balanceOf(address)": {
        "details": "See {IERC721-balanceOf}."
      },
      "getApproved(uint256)": {
        "details": "See {IERC721-getApproved}."
      },
      "isApprovedForAll(address,address)": {
        "details": "See {IERC721-isApprovedForAll}."
      },
      "name()": {
        "details": "See {IERC721Metadata-name}."
      },
      "owner()": {
        "details": "Returns the address of the current owner."
      },
      "ownerOf(uint256)": {
        "details": "See {IERC721-ownerOf}."
      },
      "renounceOwnership()": {
        "details": "Leaves the contract without owner. It will not be possible to call `onlyOwner` functions. Can only be called by the current owner. NOTE: Renouncing ownership will leave the contract without an owner, thereby disabling any functionality that is only available to the owner."
      },
      "safeTransferFrom(address,address,uint256)": {
        "details": "See {IERC721-safeTransferFrom}."
      },
      "safeTransferFrom(address,address,uint256,bytes)": {
        "details": "See {IERC721-safeTransferFrom}."
      },
      "setApprovalForAll(address,bool)": {
        "details": "See {IERC721-setApprovalForAll}."
      },
      "supportsInterface(bytes4)": {
        "details": "See {IERC165-supportsInterface}."
      },
      "symbol()": {
        "details": "See {IERC721Metadata-symbol}."
      },
      "tokenURI(uint256)": {
        "details": "See {IERC721Metadata-tokenURI}."
      },
      "transferFrom(address,address,uint256)": {
        "details": "See {IERC721-transferFrom}."
      },
      "transferOwnership(address)": {
        "details": "Transfers ownership of the contract to a new account (`newOwner`). Can only be called by the current owner."
      }
    },
    "version": 1
  },
  "userdoc": {
    "kind": "user",
    "methods": {},
    "version": 1
  }
}