{
  "contractName": "StudentCredentials",
  "abi": [
    {
      "inputs": [],
      "stateMutability": "nonpayable",
      "type": "constructor"
    },
    {
      "anonymous": false,
      "inputs": [
        {
          "indexed": true,
          "internalType": "address",
          "name": "student",
          "type": "address"
        },
        {
          "indexed": true,
          "internalType": "uint256",
          "name": "tokenId",
          "type": "uint256"
        },
        {
          "indexed": false,
          "internalType": "string",
          "name": "record",
          "type": "string"
        }
      ],
      "name": "AcademicRecordMinted",
      "type": "event"
    },
    {
      "anonymous": false,
      "inputs": [
        {
          "indexed": true,
          "internalType": "address",
          "name": "owner",
          "type": "address"
        },
        {
          "indexed": true,
          "internalType": "address",
          "name": "approved",
          "type": "address"
        },
        {
          "indexed": true,
          "internalType": "uint256",
          "name": "tokenId",
          "type": "uint256"
        }
      ],
      "name": "Approval",
      "type": "event"
    },
    {
      "anonymous": false,
      "inputs": [
        {
          "indexed": true,
          "internalType": "address",
          "name": "owner",
          "type": "address"
        },
        {
          "indexed": true,
          "internalType": "address",
          "name": "operator",
          "type": "address"
        },
        {
          "indexed": false,
          "internalType": "bool",
          "name": "approved",
          "type": "bool"
        }
      ],
      "name": "ApprovalForAll",
      "type": "event"
    },
    {
      "anonymous": false,
      "inputs": [
        {
          "indexed": true,
          "internalType": "address",
          "name": "previousOwner",
          "type": "address"
        },
        {
          "indexed": true,
          "internalType": "address",
          "name": "newOwner",
          "type": "address"
        }
      ],
      "name": "OwnershipTransferred",
      "type": "event"
    },
    {
      "anonymous": false,
      "inputs": [
        {
          "indexed": true,
          "internalType": "address",
          "name": "student",
          "type": "address"
        },
        {
          "indexed": false,
          "internalType": "string",
          "name": "resumeHash",
          "type": "string"
        }
      ],
      "name": "ResumeHashStored",
      "type": "event"
    },
    {
      "anonymous": false,
      "inputs": [
        {
          "indexed": true,
          "internalType": "address",
          "name": "employer",
          "type": "address"
        },
        {
          "indexed": true,
          "internalType": "address",
          "name": "student",
          "type": "address"
        }
      ],
      "name": "ResumeVerified",
      "type": "event"
    },
    {
      "anonymous": false,
      "inputs": [
        {
          "indexed": true,
          "internalType": "address",
          "name": "from",
          "type": "address"
        },
        {
          "indexed": true,
          "internalType": "address",
          "name": "to",
          "type": "address"
        },
        {
          "indexed": true,
          "internalType": "uint256",
          "name": "tokenId",
          "type": "uint256"
        }
      ],
      "name": "Transfer",
      "type": "event"
    },
    {
      "inputs": [
        {
          "internalType": "uint256",
          "name": "",
          "type": "uint256"
        }
      ],
      "name": "academicRecords",
      "outputs": [
        {
          "internalType": "string",
          "name": "",
          "type": "string"
        }
      ],
      "stateMutability": "view",
      "type": "function",
      "constant": true
    },
    {
      "inputs": [
        {
          "internalType": "address",
          "name": "to",
          "type": "address"
        },
        {
          "internalType": "uint256",
          "name": "tokenId",
          "type": "uint256"
        }
      ],
      "name": "approve",
      "outputs": [],
      "stateMutability": "nonpayable",
      "type": "function"
    },
    {
      "inputs": [
        {
          "internalType": "address",
          "name": "owner",
          "type": "address"
        }
      ],
      "name": "balanceOf",
      "outputs": [
        {
          "internalType": "uint256",
          "name": "",
          "type": "uint256"
        }
      ],
      "stateMutability": "view",
      "type": "function",
      "constant": true
    },
    {
      "inputs": [
        {
          "internalType": "uint256",
          "name": "tokenId",
          "type": "uint256"
        }
      ],
      "name": "getApproved",
      "outputs": [
        {
          "internalType": "address",
          "name": "",
          "type": "address"
        }
      ],
      "stateMutability": "view",
      "type": "function",
      "constant": true
    },
    {
      "inputs": [
        {
          "internalType": "address",
          "name": "owner",
          "type": "address"
        },
        {
          "internalType": "address",
          "name": "operator",
          "type": "address"
        }
      ],
      "name": "isApprovedForAll",
      "outputs": [
        {
          "internalType": "bool",
          "name": "",
          "type": "bool"
        }
      ],
      "stateMutability": "view",
      "type": "function",
      "constant": true
    },
    {
      "inputs": [],
      "name": "name",
      "outputs": [
        {
          "internalType": "string",
          "name": "",
          "type": "string"
        }
      ],
      "stateMutability": "view",
      "type": "function",
      "constant": true
    },
    {
      "inputs": [],
      "name": "nextTokenId",
      "outputs": [
        {
          "internalType": "uint256",
          "name": "",
          "type": "uint256"
        }
      ],
      "stateMutability": "view",
      "type": "function",
      "constant": true
    },
    {
      "inputs": [],
      "name": "owner",
      "outputs": [
        {
          "internalType": "address",
          "name": "",
          "type": "address"
        }
      ],
      "stateMutability": "view",
      "type": "function",
      "constant": true
    },
    {
      "inputs": [
        {
          "internalType": "uint256",
          "name": "tokenId",
          "type": "uint256"
        }
      ],
      "name": "ownerOf",
      "outputs": [
        {
          "internalType": "address",
          "name": "",
          "type": "address"
        }
      ],
      "stateMutability": "view",
      "type": "function",
      "constant": true
    },
    {
      "inputs": [],
      "name": "renounceOwnership",
      "outputs": [],
      "stateMutability": "nonpayable",
      "type": "function"
    },
    {
      "inputs": [
        {
          "internalType": "address",
          "name": "",
          "type": "address"
        }
      ],
      "name": "resumeHashes",
      "outputs": [
        {
          "internalType": "string",
          "name": "",
          "type": "string"
        }
      ],
      "stateMutability": "view",
      "type": "function",
      "constant": true
    },
    {
      "inputs": [
        {
          "internalType": "address",
          "name": "from",
          "type": "address"
        },
        {
          "internalType": "address",
          "name": "to",
          "type": "address"
        },
        {
          "internalType": "uint256",
          "name": "tokenId",
          "type": "uint256"
        }
      ],
      "name": "safeTransferFrom",
      "outputs": [],
      "stateMutability": "nonpayable",
      "type": "function"
    },
    {
      "inputs": [
        {
          "internalType": "address",
          "name": "from",
          "type": "address"
        },
        {
          "internalType": "address",
          "name": "to",
          "type": "address"
        },
        {
          "internalType": "uint256",
          "name": "tokenId",
          "type": "uint256"
        },
        {
          "internalType": "bytes",
          "name": "data",
          "type": "bytes"
        }
      ],
      "name": "safeTransferFrom",
      "outputs": [],
      "stateMutability": "nonpayable",
      "type": "function"
    },
    {
      "inputs": [
        {
          "internalType": "address",
          "name": "operator",
          "type": "address"
        },
        {
          "internalType": "bool",
          "name": "approved",
          "type": "bool"
        }
      ],
      "name": "setApprovalForAll",
      "outputs": [],
      "stateMutability": "nonpayable",
      "type": "function"
    },
    {
      "inputs": [
        {
          "internalType": "bytes4",
          "name": "interfaceId",
          "type": "bytes4"
        }
      ],
      "name": "supportsInterface",
      "outputs": [
        {
          "internalType": "bool",
          "name": "",
          "type": "bool"
        }
      ],
      "stateMutability": "view",
      "type": "function",
      "constant": true
    },
    {
      "inputs": [],
      "name": "symbol",
      "outputs": [
        {
          "internalType": "string",
          "name": "",
          "type": "string"
        }
      ],
      "stateMutability": "view",
      "type": "function",
      "constant": true
    },
    {
      "inputs": [
        {
          "internalType": "uint256",
          "name": "tokenId",
          "type": "uint256"
        }
      ],
      "name": "tokenURI",
      "outputs": [
        {
          "internalType": "string",
          "name": "",
          "type": "string"
        }
      ],
      "stateMutability": "view",
      "type": "function",
      "constant": true
    },
    {
      "inputs": [
        {
          "internalType": "address",
          "name": "from",
          "type": "address"
        },
        {
          "internalType": "address",
          "name": "to",
          "type": "address"
        },
        {
          "internalType": "uint256",
          "name": "tokenId",
          "type": "uint256"
        }
      ],
      "name": "transferFrom",
      "outputs": [],
      "stateMutability": "nonpayable",
      "type": "function"
    },
    {
      "inputs": [
        {
          "internalType": "address",
          "name": "newOwner",
          "type": "address"
        }
      ],
      "name": "transferOwnership",
      "outputs": [],
      "stateMutability": "nonpayable",
      "type": "function"
    },
    {
      "inputs": [
        {
          "internalType": "address",
          "name": "",
          "type": "address"
        }
      ],
      "name": "verifiedResumes",
      "outputs": [
        {
          "internalType": "bool",
          "name": "",
          "type": "bool"
        }
      ],
      "stateMutability": "view",
      "type": "function",
      "constant": true
    },
    {
      "inputs": [
        {
          "internalType": "string",
          "name": "resumeHash",
          "type": "string"
        }
      ],
      "name": "storeResumeHash",
      "outputs": [],
      "stateMutability": "nonpayable",
      "type": "function"
    },
    {
      "inputs": [
        {
          "internalType": "address",
          "name": "student",
          "type": "address"
        },
        {
          "internalType": "string",
          "name": "providedHash",
          "type": "string"
        }
      ],
      "name": "verifyResumeHash",
      "outputs": [],
      "stateMutability": "nonpayable",
      "type": "function"
    },
    {
      "inputs": [
        {
          "internalType": "string",
          "name": "record",
          "type": "string"
        }
      ],
      "name": "mintAcademicRecord",
      "outputs": [],
      "stateMutability": "nonpayable",
      "type": "function"
    },
    {
      "inputs": [
        {
          "internalType": "uint256",
          "name": "tokenId",
          "type": "uint256"
        }
      ],
      "name": "getAcademicRecord",
      "outputs": [
        {
          "internalType": "string",
          "name": "",
          "type": "string"
        }
      ],
      "stateMutability": "view",
      "type": "function",
      "constant": true
    }
  ],
  "bytecode": "0x60806040523480156200001157600080fd5b506040518060400160405280601281526020017f53747564656e7443726564656e7469616c7300000000000000000000000000008152506040518060400160405280600281526020017f5343000000000000000000000000000000000000000000000000000000000000815250816000908051906020019062000096929190620001ae565b508060019080519060200190620000af929190620001ae565b505050620000d2620000c6620000e060201b60201c565b620000e860201b60201c565b6001600a81905550620002c2565b600033905090565b6000600660009054906101000a900473ffffffffffffffffffffffffffffffffffffffff16905081600660006101000a81548173ffffffffffffffffffffffffffffffffffffffff021916908373ffffffffffffffffffffffffffffffffffffffff1602179055508173ffffffffffffffffffffffffffffffffffffffff168173ffffffffffffffffffffffffffffffffffffffff167f8be0079c531659141344cd1fd0a4f28419497f9722a3daafe3b4186f6b6457e060405160405180910390a35050565b828054620001bc906200028d565b90600052602060002090601f016020900481019282620001e057600085556200022c565b82601f10620001fb57805160ff19168380011785556200022c565b828001600101855582156200022c579182015b828111156200022b5782518255916020019190600101906200020e565b5b5090506200023b91906200023f565b5090565b5b808211156200025a57600081600090555060010162000240565b5090565b7f4e487b7100000000000000000000000000000000000000000000000000000000600052602260045260246000fd5b60006002820490506001821680620002a657607f821691505b602082108103620002bc57620002bb6200025e565b5b50919050565b61323480620002d26000396000f3fe608060405234801561001057600080fd5b50600436106101585760003560e01c8063715018a6116100c3578063b88d4fde1161007c578063b88d4fde146103eb578063bd27528014610407578063c4eac26c14610423578063c87b56dd1461043f578063e985e9c51461046f578063f2fde38b1461049f57610158565b8063715018a61461034f57806375794a3c1461035957806382bbb983146103775780638da5cb5b1461039357806395d89b41146103b1578063a22cb465146103cf57610158565b806331a04b931161011557806331a04b931461024357806342842e0e146102735780635feff26c1461028f57806361322e69146102bf5780636352211e146102ef57806370a082311461031f57610158565b806301ffc9a71461015d57806306fdde031461018d578063081812fc146101ab578063095ea7b3146101db578063227a99c9146101f757806323b872dd14610227575b600080fd5b610177600480360381019061017291906120d2565b6104bb565b604051610184919061211a565b60405180910390f35b61019561059d565b6040516101a291906121ce565b60405180910390f35b6101c560048036038101906101c09190612226565b61062f565b6040516101d29190612294565b60405180910390f35b6101f560048036038101906101f091906122db565b610675565b005b610211600480360381019061020c9190612226565b61078c565b60405161021e91906121ce565b60405180910390f35b610241600480360381019061023c919061231b565b610831565b005b61025d6004803603810190610258919061236e565b610891565b60405161026a91906121ce565b60405180910390f35b61028d6004803603810190610288919061231b565b610931565b005b6102a960048036038101906102a49190612226565b610951565b6040516102b691906121ce565b60405180910390f35b6102d960048036038101906102d4919061236e565b6109f1565b6040516102e6919061211a565b60405180910390f35b61030960048036038101906103049190612226565b610a11565b6040516103169190612294565b60405180910390f35b6103396004803603810190610334919061236e565b610a97565b60405161034691906123aa565b60405180910390f35b610357610b4e565b005b610361610b62565b60405161036e91906123aa565b60405180910390f35b610391600480360381019061038c91906124fa565b610b68565b005b61039b610c51565b6040516103a89190612294565b60405180910390f35b6103b9610c7b565b6040516103c691906121ce565b60405180910390f35b6103e960048036038101906103e4919061256f565b610d0d565b005b61040560048036038101906104009190612650565b610d23565b005b610421600480360381019061041c91906124fa565b610d85565b005b61043d600480360381019061043891906126d3565b610e29565b005b61045960048036038101906104549190612226565b610fab565b60405161046691906121ce565b60405180910390f35b6104896004803603810190610484919061272f565b611013565b604051610496919061211a565b60405180910390f35b6104b960048036038101906104b4919061236e565b6110a7565b005b60007f80ac58cd000000000000000000000000000000000000000000000000000000007bffffffffffffffffffffffffffffffffffffffffffffffffffffffff1916827bffffffffffffffffffffffffffffffffffffffffffffffffffffffff1916148061058657507f5b5e139f000000000000000000000000000000000000000000000000000000007bffffffffffffffffffffffffffffffffffffffffffffffffffffffff1916827bffffffffffffffffffffffffffffffffffffffffffffffffffffffff1916145b8061059657506105958261112a565b5b9050919050565b6060600080546105ac9061279e565b80601f01602080910402602001604051908101604052809291908181526020018280546105d89061279e565b80156106255780601f106105fa57610100808354040283529160200191610625565b820191906000526020600020905b81548152906001019060200180831161060857829003601f168201915b5050505050905090565b600061063a82611194565b6004600083815260200190815260200160002060009054906101000a900473ffffffffffffffffffffffffffffffffffffffff169050919050565b600061068082610a11565b90508073ffffffffffffffffffffffffffffffffffffffff168373ffffffffffffffffffffffffffffffffffffffff16036106f0576040517f08c379a00000000000000000000000000000000000000000000000000000000081526004016106e790612841565b60405180910390fd5b8073ffffffffffffffffffffffffffffffffffffffff1661070f6111df565b73ffffffffffffffffffffffffffffffffffffffff16148061073e575061073d816107386111df565b611013565b5b61077d576040517f08c379a0000000000000000000000000000000000000000000000000000000008152600401610774906128d3565b60405180910390fd5b61078783836111e7565b505050565b60606008600083815260200190815260200160002080546107ac9061279e565b80601f01602080910402602001604051908101604052809291908181526020018280546107d89061279e565b80156108255780601f106107fa57610100808354040283529160200191610825565b820191906000526020600020905b81548152906001019060200180831161080857829003601f168201915b50505050509050919050565b61084261083c6111df565b826112a0565b610881576040517f08c379a000000000000000000000000000000000000000000000000000000000815260040161087890612965565b60405180910390fd5b61088c838383611335565b505050565b600760205280600052604060002060009150905080546108b09061279e565b80601f01602080910402602001604051908101604052809291908181526020018280546108dc9061279e565b80156109295780601f106108fe57610100808354040283529160200191610929565b820191906000526020600020905b81548152906001019060200180831161090c57829003601f168201915b505050505081565b61094c83838360405180602001604052806000815250610d23565b505050565b600860205280600052604060002060009150905080546109709061279e565b80601f016020809104026020016040519081016040528092919081815260200182805461099c9061279e565b80156109e95780601f106109be576101008083540402835291602001916109e9565b820191906000526020600020905b8154815290600101906020018083116109cc57829003601f168201915b505050505081565b60096020528060005260406000206000915054906101000a900460ff1681565b600080610a1d8361162e565b9050600073ffffffffffffffffffffffffffffffffffffffff168173ffffffffffffffffffffffffffffffffffffffff1603610a8e576040517f08c379a0000000000000000000000000000000000000000000000000000000008152600401610a85906129d1565b60405180910390fd5b80915050919050565b60008073ffffffffffffffffffffffffffffffffffffffff168273ffffffffffffffffffffffffffffffffffffffff1603610b07576040517f08c379a0000000000000000000000000000000000000000000000000000000008152600401610afe90612a63565b60405180910390fd5b600360008373ffffffffffffffffffffffffffffffffffffffff1673ffffffffffffffffffffffffffffffffffffffff168152602001908152602001600020549050919050565b610b5661166b565b610b6060006116e9565b565b600a5481565b6000815111610bac576040517f08c379a0000000000000000000000000000000000000000000000000000000008152600401610ba390612acf565b60405180910390fd5b80600760003373ffffffffffffffffffffffffffffffffffffffff1673ffffffffffffffffffffffffffffffffffffffff1681526020019081526020016000209080519060200190610bff929190611fc3565b503373ffffffffffffffffffffffffffffffffffffffff167fce134a5099693cabe4f9b2f1ec28795eaba4536c2703c0098bd6329cf2e0be1682604051610c4691906121ce565b60405180910390a250565b6000600660009054906101000a900473ffffffffffffffffffffffffffffffffffffffff16905090565b606060018054610c8a9061279e565b80601f0160208091040260200160405190810160405280929190818152602001828054610cb69061279e565b8015610d035780601f10610cd857610100808354040283529160200191610d03565b820191906000526020600020905b815481529060010190602001808311610ce657829003601f168201915b5050505050905090565b610d1f610d186111df565b83836117af565b5050565b610d34610d2e6111df565b836112a0565b610d73576040517f08c379a0000000000000000000000000000000000000000000000000000000008152600401610d6a90612965565b60405180910390fd5b610d7f8484848461191b565b50505050565b6000600a54905081600860008381526020019081526020016000209080519060200190610db3929190611fc3565b50610dbe3382611977565b600a6000815480929190610dd190612b1e565b9190505550803373ffffffffffffffffffffffffffffffffffffffff167f7bbef7f2737e6fdaa44e733cd16977a4b9dc52e2a9125948c3817964caaaf2ad84604051610e1d91906121ce565b60405180910390a35050565b80604051602001610e3a9190612ba2565b60405160208183030381529060405280519060200120600760008473ffffffffffffffffffffffffffffffffffffffff1673ffffffffffffffffffffffffffffffffffffffff168152602001908152602001600020604051602001610e9f9190612c4d565b6040516020818303038152906040528051906020012014610ef5576040517f08c379a0000000000000000000000000000000000000000000000000000000008152600401610eec90612cb0565b60405180910390fd5b6001600960008473ffffffffffffffffffffffffffffffffffffffff1673ffffffffffffffffffffffffffffffffffffffff16815260200190815260200160002060006101000a81548160ff0219169083151502179055508173ffffffffffffffffffffffffffffffffffffffff163373ffffffffffffffffffffffffffffffffffffffff167f9ca51ab6c3c7e50e9b6f18e7c52f9c3691173f09e08f5a1cf7649c0f00e3633e60405160405180910390a35050565b6060610fb682611194565b6000610fc0611b94565b90506000815111610fe0576040518060200160405280600081525061100b565b80610fea84611bab565b604051602001610ffb929190612cd0565b6040516020818303038152906040525b915050919050565b6000600560008473ffffffffffffffffffffffffffffffffffffffff1673ffffffffffffffffffffffffffffffffffffffff16815260200190815260200160002060008373ffffffffffffffffffffffffffffffffffffffff1673ffffffffffffffffffffffffffffffffffffffff16815260200190815260200160002060009054906101000a900460ff16905092915050565b6110af61166b565b600073ffffffffffffffffffffffffffffffffffffffff168173ffffffffffffffffffffffffffffffffffffffff160361111e576040517f08c379a000000000000000000000000000000000000000000000000000000000815260040161111590612d66565b60405180910390fd5b611127816116e9565b50565b60007f01ffc9a7000000000000000000000000000000000000000000000000000000007bffffffffffffffffffffffffffffffffffffffffffffffffffffffff1916827bffffffffffffffffffffffffffffffffffffffffffffffffffffffff1916149050919050565b61119d81611c79565b6111dc576040517f08c379a00000000000000000000000000000000000000000000000000000000081526004016111d3906129d1565b60405180910390fd5b50565b600033905090565b816004600083815260200190815260200160002060006101000a81548173ffffffffffffffffffffffffffffffffffffffff021916908373ffffffffffffffffffffffffffffffffffffffff160217905550808273ffffffffffffffffffffffffffffffffffffffff1661125a83610a11565b73ffffffffffffffffffffffffffffffffffffffff167f8c5be1e5ebec7d5bd14f71427d1e84f3dd0314c0f7b2291e5b200ac8c7c3b92560405160405180910390a45050565b6000806112ac83610a11565b90508073ffffffffffffffffffffffffffffffffffffffff168473ffffffffffffffffffffffffffffffffffffffff1614806112ee57506112ed8185611013565b5b8061132c57508373ffffffffffffffffffffffffffffffffffffffff166113148461062f565b73ffffffffffffffffffffffffffffffffffffffff16145b91505092915050565b8273ffffffffffffffffffffffffffffffffffffffff1661135582610a11565b73ffffffffffffffffffffffffffffffffffffffff16146113ab576040517f08c379a00000000000000000000000000000000000000000000000000000000081526004016113a290612df8565b60405180910390fd5b600073ffffffffffffffffffffffffffffffffffffffff168273ffffffffffffffffffffffffffffffffffffffff160361141a576040517f08c379a000000000000000000000000000000000000000000000000000000000815260040161141190612e8a565b60405180910390fd5b6114278383836001611cba565b8273ffffffffffffffffffffffffffffffffffffffff1661144782610a11565b73ffffffffffffffffffffffffffffffffffffffff161461149d576040517f08c379a000000000000000000000000000000000000000000000000000000000815260040161149490612df8565b60405180910390fd5b6004600082815260200190815260200160002060006101000a81549073ffffffffffffffffffffffffffffffffffffffff02191690556001600360008573ffffffffffffffffffffffffffffffffffffffff1673ffffffffffffffffffffffffffffffffffffffff168152602001908152602001600020600082825403925050819055506001600360008473ffffffffffffffffffffffffffffffffffffffff1673ffffffffffffffffffffffffffffffffffffffff16815260200190815260200160002060008282540192505081905550816002600083815260200190815260200160002060006101000a81548173ffffffffffffffffffffffffffffffffffffffff021916908373ffffffffffffffffffffffffffffffffffffffff160217905550808273ffffffffffffffffffffffffffffffffffffffff168473ffffffffffffffffffffffffffffffffffffffff167fddf252ad1be2c89b69c2b068fc378daa952ba7f163c4a11628f55a4df523b3ef60405160405180910390a46116298383836001611cc0565b505050565b60006002600083815260200190815260200160002060009054906101000a900473ffffffffffffffffffffffffffffffffffffffff169050919050565b6116736111df565b73ffffffffffffffffffffffffffffffffffffffff16611691610c51565b73ffffffffffffffffffffffffffffffffffffffff16146116e7576040517f08c379a00000000000000000000000000000000000000000000000000000000081526004016116de90612ef6565b60405180910390fd5b565b6000600660009054906101000a900473ffffffffffffffffffffffffffffffffffffffff16905081600660006101000a81548173ffffffffffffffffffffffffffffffffffffffff021916908373ffffffffffffffffffffffffffffffffffffffff1602179055508173ffffffffffffffffffffffffffffffffffffffff168173ffffffffffffffffffffffffffffffffffffffff167f8be0079c531659141344cd1fd0a4f28419497f9722a3daafe3b4186f6b6457e060405160405180910390a35050565b8173ffffffffffffffffffffffffffffffffffffffff168373ffffffffffffffffffffffffffffffffffffffff160361181d576040517f08c379a000000000000000000000000000000000000000000000000000000000815260040161181490612f62565b60405180910390fd5b80600560008573ffffffffffffffffffffffffffffffffffffffff1673ffffffffffffffffffffffffffffffffffffffff16815260200190815260200160002060008473ffffffffffffffffffffffffffffffffffffffff1673ffffffffffffffffffffffffffffffffffffffff16815260200190815260200160002060006101000a81548160ff0219169083151502179055508173ffffffffffffffffffffffffffffffffffffffff168373ffffffffffffffffffffffffffffffffffffffff167f17307eab39ab6107e8899845ad3d59bd9653f200f220920489ca2b5937696c318360405161190e919061211a565b60405180910390a3505050565b611926848484611335565b61193284848484611cc6565b611971576040517f08c379a000000000000000000000000000000000000000000000000000000000815260040161196890612ff4565b60405180910390fd5b50505050565b600073ffffffffffffffffffffffffffffffffffffffff168273ffffffffffffffffffffffffffffffffffffffff16036119e6576040517f08c379a00000000000000000000000000000000000000000000000000000000081526004016119dd90613060565b60405180910390fd5b6119ef81611c79565b15611a2f576040517f08c379a0000000000000000000000000000000000000000000000000000000008152600401611a26906130cc565b60405180910390fd5b611a3d600083836001611cba565b611a4681611c79565b15611a86576040517f08c379a0000000000000000000000000000000000000000000000000000000008152600401611a7d906130cc565b60405180910390fd5b6001600360008473ffffffffffffffffffffffffffffffffffffffff1673ffffffffffffffffffffffffffffffffffffffff16815260200190815260200160002060008282540192505081905550816002600083815260200190815260200160002060006101000a81548173ffffffffffffffffffffffffffffffffffffffff021916908373ffffffffffffffffffffffffffffffffffffffff160217905550808273ffffffffffffffffffffffffffffffffffffffff16600073ffffffffffffffffffffffffffffffffffffffff167fddf252ad1be2c89b69c2b068fc378daa952ba7f163c4a11628f55a4df523b3ef60405160405180910390a4611b90600083836001611cc0565b5050565b606060405180602001604052806000815250905090565b606060006001611bba84611e4d565b01905060008167ffffffffffffffff811115611bd957611bd86123cf565b5b6040519080825280601f01601f191660200182016040528015611c0b5781602001600182028036833780820191505090505b509050600082602001820190505b600115611c6e578080600190039150507f3031323334353637383961626364656600000000000000000000000000000000600a86061a8153600a8581611c6257611c616130ec565b5b04945060008503611c19575b819350505050919050565b60008073ffffffffffffffffffffffffffffffffffffffff16611c9b8361162e565b73ffffffffffffffffffffffffffffffffffffffff1614159050919050565b50505050565b50505050565b6000611ce78473ffffffffffffffffffffffffffffffffffffffff16611fa0565b15611e40578373ffffffffffffffffffffffffffffffffffffffff1663150b7a02611d106111df565b8786866040518563ffffffff1660e01b8152600401611d329493929190613170565b6020604051808303816000875af1925050508015611d6e57506040513d601f19601f82011682018060405250810190611d6b91906131d1565b60015b611df0573d8060008114611d9e576040519150601f19603f3d011682016040523d82523d6000602084013e611da3565b606091505b506000815103611de8576040517f08c379a0000000000000000000000000000000000000000000000000000000008152600401611ddf90612ff4565b60405180910390fd5b805181602001fd5b63150b7a0260e01b7bffffffffffffffffffffffffffffffffffffffffffffffffffffffff1916817bffffffffffffffffffffffffffffffffffffffffffffffffffffffff191614915050611e45565b600190505b949350505050565b600080600090507a184f03e93ff9f4daa797ed6e38ed64bf6a1f0100000000000000008310611eab577a184f03e93ff9f4daa797ed6e38ed64bf6a1f0100000000000000008381611ea157611ea06130ec565b5b0492506040810190505b6d04ee2d6d415b85acef81000000008310611ee8576d04ee2d6d415b85acef81000000008381611ede57611edd6130ec565b5b0492506020810190505b662386f26fc100008310611f1757662386f26fc100008381611f0d57611f0c6130ec565b5b0492506010810190505b6305f5e1008310611f40576305f5e1008381611f3657611f356130ec565b5b0492506008810190505b6127108310611f65576127108381611f5b57611f5a6130ec565b5b0492506004810190505b60648310611f885760648381611f7e57611f7d6130ec565b5b0492506002810190505b600a8310611f97576001810190505b80915050919050565b6000808273ffffffffffffffffffffffffffffffffffffffff163b119050919050565b828054611fcf9061279e565b90600052602060002090601f016020900481019282611ff15760008555612038565b82601f1061200a57805160ff1916838001178555612038565b82800160010185558215612038579182015b8281111561203757825182559160200191906001019061201c565b5b5090506120459190612049565b5090565b5b8082111561206257600081600090555060010161204a565b5090565b6000604051905090565b600080fd5b600080fd5b60007fffffffff0000000000000000000000000000000000000000000000000000000082169050919050565b6120af8161207a565b81146120ba57600080fd5b50565b6000813590506120cc816120a6565b92915050565b6000602082840312156120e8576120e7612070565b5b60006120f6848285016120bd565b91505092915050565b60008115159050919050565b612114816120ff565b82525050565b600060208201905061212f600083018461210b565b92915050565b600081519050919050565b600082825260208201905092915050565b60005b8381101561216f578082015181840152602081019050612154565b8381111561217e576000848401525b50505050565b6000601f19601f8301169050919050565b60006121a082612135565b6121aa8185612140565b93506121ba818560208601612151565b6121c381612184565b840191505092915050565b600060208201905081810360008301526121e88184612195565b905092915050565b6000819050919050565b612203816121f0565b811461220e57600080fd5b50565b600081359050612220816121fa565b92915050565b60006020828403121561223c5761223b612070565b5b600061224a84828501612211565b91505092915050565b600073ffffffffffffffffffffffffffffffffffffffff82169050919050565b600061227e82612253565b9050919050565b61228e81612273565b82525050565b60006020820190506122a96000830184612285565b92915050565b6122b881612273565b81146122c357600080fd5b50565b6000813590506122d5816122af565b92915050565b600080604083850312156122f2576122f1612070565b5b6000612300858286016122c6565b925050602061231185828601612211565b9150509250929050565b60008060006060848603121561233457612333612070565b5b6000612342868287016122c6565b9350506020612353868287016122c6565b925050604061236486828701612211565b9150509250925092565b60006020828403121561238457612383612070565b5b6000612392848285016122c6565b91505092915050565b6123a4816121f0565b82525050565b60006020820190506123bf600083018461239b565b92915050565b600080fd5b600080fd5b7f4e487b7100000000000000000000000000000000000000000000000000000000600052604160045260246000fd5b61240782612184565b810181811067ffffffffffffffff82111715612426576124256123cf565b5b80604052505050565b6000612439612066565b905061244582826123fe565b919050565b600067ffffffffffffffff821115612465576124646123cf565b5b61246e82612184565b9050602081019050919050565b82818337600083830152505050565b600061249d6124988461244a565b61242f565b9050828152602081018484840111156124b9576124b86123ca565b5b6124c484828561247b565b509392505050565b600082601f8301126124e1576124e06123c5565b5b81356124f184826020860161248a565b91505092915050565b6000602082840312156125105761250f612070565b5b600082013567ffffffffffffffff81111561252e5761252d612075565b5b61253a848285016124cc565b91505092915050565b61254c816120ff565b811461255757600080fd5b50565b60008135905061256981612543565b92915050565b6000806040838503121561258657612585612070565b5b6000612594858286016122c6565b92505060206125a58582860161255a565b9150509250929050565b600067ffffffffffffffff8211156125ca576125c96123cf565b5b6125d382612184565b9050602081019050919050565b60006125f36125ee846125af565b61242f565b90508281526020810184848401111561260f5761260e6123ca565b5b61261a84828561247b565b509392505050565b600082601f830112612637576126366123c5565b5b81356126478482602086016125e0565b91505092915050565b6000806000806080858703121561266a57612669612070565b5b6000612678878288016122c6565b9450506020612689878288016122c6565b935050604061269a87828801612211565b925050606085013567ffffffffffffffff8111156126bb576126ba612075565b5b6126c787828801612622565b91505092959194509250565b600080604083850312156126ea576126e9612070565b5b60006126f8858286016122c6565b925050602083013567ffffffffffffffff81111561271957612718612075565b5b612725858286016124cc565b9150509250929050565b6000806040838503121561274657612745612070565b5b6000612754858286016122c6565b9250506020612765858286016122c6565b9150509250929050565b7f4e487b7100000000000000000000000000000000000000000000000000000000600052602260045260246000fd5b600060028204905060018216806127b657607f821691505b6020821081036127c9576127c861276f565b5b50919050565b7f4552433732313a20617070726f76616c20746f2063757272656e74206f776e6560008201527f7200000000000000000000000000000000000000000000000000000000000000602082015250565b600061282b602183612140565b9150612836826127cf565b604082019050919050565b6000602082019050818103600083015261285a8161281e565b9050919050565b7f4552433732313a20617070726f76652063616c6c6572206973206e6f7420746f60008201527f6b656e206f776e6572206f7220617070726f76656420666f7220616c6c000000602082015250565b60006128bd603d83612140565b91506128c882612861565b604082019050919050565b600060208201905081810360008301526128ec816128b0565b9050919050565b7f4552433732313a2063616c6c6572206973206e6f7420746f6b656e206f776e6560008201527f72206f7220617070726f76656400000000000000000000000000000000000000602082015250565b600061294f602d83612140565b915061295a826128f3565b604082019050919050565b6000602082019050818103600083015261297e81612942565b9050919050565b7f4552433732313a20696e76616c696420746f6b656e2049440000000000000000600082015250565b60006129bb601883612140565b91506129c682612985565b602082019050919050565b600060208201905081810360008301526129ea816129ae565b9050919050565b7f4552433732313a2061646472657373207a65726f206973206e6f74206120766160008201527f6c6964206f776e65720000000000000000000000000000000000000000000000602082015250565b6000612a4d602983612140565b9150612a58826129f1565b604082019050919050565b60006020820190508181036000830152612a7c81612a40565b9050919050565b7f526573756d6520686173682063616e6e6f7420626520656d7074792100000000600082015250565b6000612ab9601c83612140565b9150612ac482612a83565b602082019050919050565b60006020820190508181036000830152612ae881612aac565b9050919050565b7f4e487b7100000000000000000000000000000000000000000000000000000000600052601160045260246000fd5b6000612b29826121f0565b91507fffffffffffffffffffffffffffffffffffffffffffffffffffffffffffffffff8203612b5b57612b5a612aef565b5b600182019050919050565b600081905092915050565b6000612b7c82612135565b612b868185612b66565b9350612b96818560208601612151565b80840191505092915050565b6000612bae8284612b71565b915081905092915050565b60008190508160005260206000209050919050565b60008154612bdb8161279e565b612be58186612b66565b94506001821660008114612c005760018114612c1157612c44565b60ff19831686528186019350612c44565b612c1a85612bb9565b60005b83811015612c3c57815481890152600182019150602081019050612c1d565b838801955050505b50505092915050565b6000612c598284612bce565b915081905092915050565b7f526573756d652068617368206d69736d61746368210000000000000000000000600082015250565b6000612c9a601583612140565b9150612ca582612c64565b602082019050919050565b60006020820190508181036000830152612cc981612c8d565b9050919050565b6000612cdc8285612b71565b9150612ce88284612b71565b91508190509392505050565b7f4f776e61626c653a206e6577206f776e657220697320746865207a65726f206160008201527f6464726573730000000000000000000000000000000000000000000000000000602082015250565b6000612d50602683612140565b9150612d5b82612cf4565b604082019050919050565b60006020820190508181036000830152612d7f81612d43565b9050919050565b7f4552433732313a207472616e736665722066726f6d20696e636f72726563742060008201527f6f776e6572000000000000000000000000000000000000000000000000000000602082015250565b6000612de2602583612140565b9150612ded82612d86565b604082019050919050565b60006020820190508181036000830152612e1181612dd5565b9050919050565b7f4552433732313a207472616e7366657220746f20746865207a65726f2061646460008201527f7265737300000000000000000000000000000000000000000000000000000000602082015250565b6000612e74602483612140565b9150612e7f82612e18565b604082019050919050565b60006020820190508181036000830152612ea381612e67565b9050919050565b7f4f776e61626c653a2063616c6c6572206973206e6f7420746865206f776e6572600082015250565b6000612ee0602083612140565b9150612eeb82612eaa565b602082019050919050565b60006020820190508181036000830152612f0f81612ed3565b9050919050565b7f4552433732313a20617070726f766520746f2063616c6c657200000000000000600082015250565b6000612f4c601983612140565b9150612f5782612f16565b602082019050919050565b60006020820190508181036000830152612f7b81612f3f565b9050919050565b7f4552433732313a207472616e7366657220746f206e6f6e20455243373231526560008201527f63656976657220696d706c656d656e7465720000000000000000000000000000602082015250565b6000612fde603283612140565b9150612fe982612f82565b604082019050919050565b6000602082019050818103600083015261300d81612fd1565b9050919050565b7f4552433732313a206d696e7420746f20746865207a65726f2061646472657373600082015250565b600061304a602083612140565b915061305582613014565b602082019050919050565b600060208201905081810360008301526130798161303d565b9050919050565b7f4552433732313a20746f6b656e20616c7265616479206d696e74656400000000600082015250565b60006130b6601c83612140565b91506130c182613080565b602082019050919050565b600060208201905081810360008301526130e5816130a9565b9050919050565b7f4e487b7100000000000000000000000000000000000000000000000000000000600052601260045260246000fd5b600081519050919050565b600082825260208201905092915050565b60006131428261311b565b61314c8185613126565b935061315c818560208601612151565b61316581612184565b840191505092915050565b60006080820190506131856000830187612285565b6131926020830186612285565b61319f604083018561239b565b81810360608301526131b18184613137565b905095945050505050565b6000815190506131cb816120a6565b92915050565b6000602082840312156131e7576131e6612070565b5b60006131f5848285016131bc565b9150509291505056fea2646970667358221220c30968100c9efe56cec438608f1588d76feded1b15530f67d1c252fe745a7ece64736f6c634300080d0033",
  "immutableReferences": {},
  "source": "// SPDX-License-Identifier: MIT\r\npragma solidity ^0.8.13;\r\n\r\nimport \"@openzeppelin/contracts/token/ERC721/ERC721.sol\";\r\nimport \"@openzeppelin/contracts/access/Ownable.sol\";\r\n\r\ncontract StudentCredentials is ERC721, Ownable {\r\n    mapping(address => string) public resumeHashes;\r\n    mapping(uint => string) public academicRecords;\r\n    mapping(address => bool) public verifiedResumes;\r\n\r\n    uint public nextTokenId;\r\n\r\n    event ResumeHashStored(address indexed student, string resumeHash);\r\n    event ResumeVerified(address indexed employer, address indexed student);\r\n    event AcademicRecordMinted(address indexed student, uint indexed tokenId, string record);\r\n\r\n    constructor() ERC721(\"StudentCredentials\", \"SC\") {\r\n        nextTokenId = 1;\r\n    }\r\n\r\n    // Function for students to upload a resume hash\r\n    function storeResumeHash(string memory resumeHash) external {\r\n        require(bytes(resumeHash).length > 0, \"Resume hash cannot be empty!\");\r\n        resumeHashes[msg.sender] = resumeHash;\r\n        emit ResumeHashStored(msg.sender, resumeHash);\r\n    }\r\n\r\n    // Function for employers to verify a resume hash\r\n    function verifyResumeHash(address student, string memory providedHash) external {\r\n        require(keccak256(abi.encodePacked(resumeHashes[student])) == keccak256(abi.encodePacked(providedHash)), \"Resume hash mismatch!\");\r\n        verifiedResumes[student] = true;\r\n        emit ResumeVerified(msg.sender, student);\r\n    }\r\n\r\n    // Function for students to mint academic credentials as NFTs\r\n    function mintAcademicRecord(string memory record) external {\r\n        uint tokenId = nextTokenId;\r\n        academicRecords[tokenId] = record;\r\n        _mint(msg.sender, tokenId);\r\n        nextTokenId++;\r\n        emit AcademicRecordMinted(msg.sender, tokenId, record);\r\n    }\r\n\r\n    // Function to get academic record by token ID\r\n    function getAcademicRecord(uint tokenId) external view returns (string memory) {\r\n        return academicRecords[tokenId];\r\n    }\r\n}",
  "sourcePath": "C:\\Users\\avani\\OneDrive\\Documents\\Desktop\\Avanish\\Projects\\TrustTag\\contracts\\StudentCredentials.sol",
  "compiler": {
    "name": "solc",
    "version": "0.8.13+commit.abaa5c0e.Emscripten.clang"
  },
  "schemaVersion": "3.4.16",
  "updatedAt": "2025-03-03T05:45:57.448Z",
  "networkType": "ethereum",
  "devdoc": {
    "kind": "dev",
    "methods": {
      "approve(address,uint256)": {
        "details": "See {IERC721-approve}."
      },
      "balanceOf(address)": {
        "details": "See {IERC721-balanceOf}."
      },
      "getApproved(uint256)": {
        "details": "See {IERC721-getApproved}."
      },
      "isApprovedForAll(address,address)": {
        "details": "See {IERC721-isApprovedForAll}."
      },
      "name()": {
        "details": "See {IERC721Metadata-name}."
      },
      "owner()": {
        "details": "Returns the address of the current owner."
      },
      "ownerOf(uint256)": {
        "details": "See {IERC721-ownerOf}."
      },
      "renounceOwnership()": {
        "details": "Leaves the contract without owner. It will not be possible to call `onlyOwner` functions. Can only be called by the current owner. NOTE: Renouncing ownership will leave the contract without an owner, thereby disabling any functionality that is only available to the owner."
      },
      "safeTransferFrom(address,address,uint256)": {
        "details": "See {IERC721-safeTransferFrom}."
      },
      "safeTransferFrom(address,address,uint256,bytes)": {
        "details": "See {IERC721-safeTransferFrom}."
      },
      "setApprovalForAll(address,bool)": {
        "details": "See {IERC721-setApprovalForAll}."
      },
      "supportsInterface(bytes4)": {
        "details": "See {IERC165-supportsInterface}."
      },
      "symbol()": {
        "details": "See {IERC721Metadata-symbol}."
      },
      "tokenURI(uint256)": {
        "details": "See {IERC721Metadata-tokenURI}."
      },
      "transferFrom(address,address,uint256)": {
        "details": "See {IERC721-transferFrom}."
      },
      "transferOwnership(address)": {
        "details": "Transfers ownership of the contract to a new account (`newOwner`). Can only be called by the current owner."
      }
    },
    "version": 1
  },
  "userdoc": {
    "kind": "user",
    "methods": {},
    "version": 1
  }
}